{
  "contractName": "Name",
  "abi": [
    {
      "inputs": [],
      "stateMutability": "nonpayable",
      "type": "constructor"
    },
    {
      "inputs": [
        {
          "internalType": "uint256",
          "name": "amount",
          "type": "uint256"
        }
      ],
      "name": "deposit",
      "outputs": [],
      "stateMutability": "nonpayable",
      "type": "function"
    },
    {
      "inputs": [
        {
          "internalType": "uint256",
          "name": "amount",
          "type": "uint256"
        }
      ],
      "name": "withraw",
      "outputs": [],
      "stateMutability": "nonpayable",
      "type": "function"
    },
    {
      "inputs": [],
      "name": "getBalance",
      "outputs": [
        {
          "internalType": "uint256",
          "name": "",
          "type": "uint256"
        }
      ],
      "stateMutability": "view",
      "type": "function",
      "constant": true
    }
  ],
  "bytecode": "0x608060405234801561001057600080fd5b50600080819055506102fb806100276000396000f3fe608060405234801561001057600080fd5b50600436106100415760003560e01c806312065fe014610046578063b6b55f2514610064578063f03cc2b914610080575b600080fd5b61004e61009c565b60405161005b9190610138565b60405180910390f35b61007e60048036038101906100799190610184565b6100a5565b005b61009a60048036038101906100959190610184565b6100c0565b005b60008054905090565b806000808282546100b691906101e0565b9250508190555050565b8060005411610104576040517f08c379a00000000000000000000000000000000000000000000000000000000081526004016100fb90610271565b60405180910390fd5b806000808282546101159190610291565b9250508190555050565b6000819050919050565b6101328161011f565b82525050565b600060208201905061014d6000830184610129565b92915050565b600080fd5b6101618161011f565b811461016c57600080fd5b50565b60008135905061017e81610158565b92915050565b60006020828403121561019a57610199610153565b5b60006101a88482850161016f565b91505092915050565b7f4e487b7100000000000000000000000000000000000000000000000000000000600052601160045260246000fd5b60006101eb8261011f565b91506101f68361011f565b925082820190508082111561020e5761020d6101b1565b5b92915050565b600082825260208201905092915050565b7f4e6f7420456e6f7567682046756e642100000000000000000000000000000000600082015250565b600061025b601083610214565b915061026682610225565b602082019050919050565b6000602082019050818103600083015261028a8161024e565b9050919050565b600061029c8261011f565b91506102a78361011f565b92508282039050818111156102bf576102be6101b1565b5b9291505056fea264697066735822122090e8f8f9cf2bc7db50af4d123ca1cf0d358091219101cd6c980e251d583e12c364736f6c63430008100033",
  "immutableReferences": {},
  "source": "// SPDX-License-Identifier: MIT\r\npragma solidity >=0.7.0 <0.9.0;\r\ncontract Name{\r\n\r\n    uint balance;\r\n\r\n    constructor (){\r\n        balance = 0;\r\n    }\r\n\r\n    function deposit(uint amount) public {\r\n        balance += amount;\r\n    }\r\n\r\n    function withraw(uint amount) public {\r\n        require(balance>amount , \"Not Enough Fund!\");\r\n        balance -= amount;\r\n    }\r\n\r\n    function getBalance() public view returns(uint){\r\n        return balance;\r\n    }\r\n}",
  "sourcePath": "C:\\Users\\hp\\Documents\\GitHub\\blockchain_Dapp\\contracts\\Name.sol",
  "compiler": {
    "name": "solc",
    "version": "0.8.16+commit.07a7930e.Emscripten.clang"
  },
  "schemaVersion": "3.4.9",
  "updatedAt": "2022-09-01T18:50:00.646Z",
  "networkType": "ethereum",
  "devdoc": {
    "kind": "dev",
    "methods": {},
    "version": 1
  },
  "userdoc": {
    "kind": "user",
    "methods": {},
    "version": 1
  }
}